:03000000020226D3
:0C022600787FE4F6D8FD75811E02026DA1
:1004A3003F065B4F666D7D077F6FFEFDFBF7EFDF5A
:1004660002130000021B0000021900000215000022
:10047600020A000002080000021D0000021000002F
:0C048600010E37010D00010C00010F01F8
:10038800AE19AF1A7D0A1203E374A32FF582740421
:100398003EF583E493F5909004B0E493F5807F0AEA
:1003A8001203CFAE19AF1A7C007D0A1203E374A3BF
:1003B8002DF58274043CF583E4932480F590900431
:0703C800AFE493F5807F0A0A
:1003CF008F17E517D39400400A75187DD518FD15C2
:0403DF001780EF2272
:0A04B300C2A47FF41203CFD2A422EA
:0704BD00D288D2A8D2AF22C1
:10049300758901758C3C758AB0D2AFD2A9D28C22F2
:10000E00E51164014510703DAE1BAF1CFC7D0A125C
:10001E0003E374A32FF58274043EF583E493F59005
:10002E009004AE1203C9AE1BAF1C7C007D0A1203F6
:10003E00E374A32DF58274043CF583E493F590905C
:10004E0004AD1203C9E511640245107004FC1203DD
:10005E0088E51164034510703FAE15AF16FC7D0A9E
:10006E001203E374A32FF58274043EF583E493F533
:10007E00909004B21203C9AE15AF167C007D0A1221
:10008E0003E374A32DF58274043CF583E49324807A
:10009E00F5909004B11203C9D3E5119403E51094C1
:1000AE00005009E5114510600302013DAE1BAF1C67
:1000BE007C007D0A1203E374A32FF58274043EF5CF
:1000CE0083E493F5909004AE1203C9AE1BAF1C7C73
:1000DE00007D0A1203E374A32DF58274043CF583AC
:1000EE00E493F5909004AD1203C97C00120388AE20
:1000FE0015AF167C007D0A1203E374A32FF58274EC
:10010E00043EF583E493F5909004B21203C9AE1544
:10011E00AF167C007D0A1203E374A32DF5827404DE
:10012E003CF583E4932480F5909004B11203C92228
:10013E00E51145107003020225D2A220A0657F149E
:10014E001203CF20A05D30A0FD1204B3E510705352
:10015E00E51124FE601F14603424027046051CE570
:10016E001C7002051BD3943BE51B94004035E4F54F
:10017E001BF51C802E051AE51A70020519D3943B47
:10018E00E5199400401DE4F519F51A80160516E5DB
:10019E001670020515D39417E51594004005E4F585
:1001AE0015F51620A1717F141203CF20A16930A17D
:1001BE00FD1204B3E510705FE51124FE6028146093
:1001CE003E24027052E51C151C7002151BE51CF432
:1001DE007003E51BF470407590FF7F141203CF750A
:1001EE001B00751C3B22E51A151A70021519E51A2B
:1001FE00B4FF24E519B4FF1F751900751A3B22E5EB
:10020E0016151670021515E516B4FF0BE515B4FF9D
:08021E00067515007516172284
:100438001204BD120493E4F510F51112013E7F1E5B
:100448001203CF12000EE50EB51CF0E4B51BECC28A
:0E045800A47FE81203CFD2A4C28CC2A280DD22
:03000B00020320CD
:10032000C0E0C0D0758C40758AFB0514E5147002DE
:10033000051364144513704BF513F514051CE51CE7
:100340007002051BB2A2D3943BE51B9400403475A8
:100350001B00751C00051AE51A70020519D3943BA1
:10036000E5199400401D751900751A000516E5166B
:1003700070020515D39417E5159400400675150015
:08038000751600D0D0D0E03268
:030003000202B244
:1002B200C0E0C0D075D000C00720B25B7F0512033A
:1002C200CF20B2530511E51170020510E51C24057B
:1002D200F50ED2A4C28CE511640145107008F51B1D
:1002E200F51CD2B4D2B5E511640245107004C2B453
:1002F200D2B5E511640345107004D2B4C2B5E5115C
:10030200640445107011D2A4D2B4D2B5D28CC2A268
:0E031200851C0EF51BF51CD007D0D0D0E032B4
:10023200020438E493A3F8E493A34003F68001F2A6
:1002420008DFF48029E493A3F85407240CC8C333CD
:10025200C4540F4420C8834004F456800146F6DF9C
:10026200E4800B0102040810204080900466E47EC2
:10027200019360BCA3FF543F30E509541FFEE49391
:10028200A360010ECF54C025E060A840B8E493A358
:10029200FAE493A3F8E493A3C8C582C8CAC583CA83
:1002A200F0A3C8C582C8CAC583CADFE9DEE780BE3B
:010492000069
:1003E300BC000BBE0029EF8DF084FFADF022E4CCFE
:1003F300F875F008EF2FFFEE33FEEC33FCEE9DECC7
:10040300984005FCEE9DFE0FD5F0E9E4CEFD22ED0C
:10041300F8F5F0EE8420D21CFEADF075F008EF2F56
:10042300FFED33FD4007985006D5F0F222C398FD47
:050433000FD5F0EA22E4
:00000001FF
