:0300000002026594
:0C026500787FE4F6D8FD75810C020003E0
:10021D0020323032312D31312D3032205475650080
:0D022D002020202030303A30303A303000B0
:0A01CF00C293C2928F807F0A7E0067
:1001D900D3EF9400EE940040147D6E7C00ED1D7009
:0D01E900011CED4C70F7EF1F70E61E80E367
:0101F60022E6
:0C027100C2A37F647E001201D9D2A32238
:09023A00AD087F0A1201FB7FCA26
:10024300C2911201CFD2937F147E001201D9C293BF
:010253002288
:10025400D2911201CFD2937F147E001201D9C2939E
:010264002277
:10017800C2937F381202431201D57F0C1202437FCB
:10018800061202437F011202437F80120243E4FBFE
:10019800EB90021D93FF1202541201D50BBB0FF016
:1001A8007FC0120243E4FBEB90022D93FF1202542E
:1001B8001201D50BBB0CF0758901758C3C758AB0A2
:0601C800D2AFD2A9D28CD7
:0101CE00220E
:0401F700AD0A7F07C7
:1001FB00ED75F00A84FBED75F00A84AAF0EF24C0CC
:10020B00FF120243EB2430FF120254EA2430FF02A8
:02021B0002548B
:10000E00C29220A0467F057E001201D920A01912AF
:10001E000271050C30A0FDE50CB4010CC28C7FCA38
:10002E001202437F0F120243E50CB402057FC71282
:10003E000243E50CB403057FC4120243E50CB4047D
:10004E000AE4F50C7F0C120243D28CE50C7003020D
:10005E00010E20A1547F057E001201D920A14A1263
:10006E00027130A1FDE50CB4010D0508E508B43CA4
:10007E0003E4F50812023AE50CB40212050AE50A89
:10008E00B43C03E4F50A1201F77FC7120243E50CF4
:10009E00B40316050BE50BB41803E4F50BAD0B7F9B
:1000AE00041201FB7FC412024320A2547F057E007E
:1000BE001201D920A24A12027130A2FDE50CB40140
:1000CE000D1508E508B4FF0375083B12023AE50C5E
:1000DE00B40212150AE50AB4FF03750A3B1201F7C2
:1000EE007FC7120243E50CB40316150BE50BB4FFE4
:1000FE0003750B17AD0B7F041201FB7FC412024375
:01010E0022CE
:0800030012017812000E80FBCF
:03000B0002010FE0
:10010F00C0E0C0F0C0D075D000C002C003C004C0B2
:10011F0005C006C007758C3C758AB00509E50964F2
:10012F00127033F5090508B290E508643C7020F5AC
:10013F0008050AE50AB43C14750A00050BE50BB473
:10014F001803750B00AD0B7F041201FB1201F7AD05
:10015F00087F0A1201FBD007D006D005D004D003C8
:09016F00D002D0D0D0F0D0E03273
:00000001FF
