:03000000020AFFF2
:0C0AFF00787FE4F6D8FD758163020B4699
:100F9B00323020202D2D20202D2D2020D6DC20009E
:100FAB00BFAAB7A2D7F7D5DF3A52616D7365792027
:0E0FBB00202000CAB12020B7D62020C3EB00B2
:100F6A000A52CAD2C4DACEC2B6C83A000141000156
:100F7A004C17014E00015100014F01023307E502EF
:100F8A0027000B0238000D016100013200015C00EC
:100D5500E4FD7F8E120D77AE33AF347C007D6412D7
:100D650006C4AF051210B8AD077F8C120D777D80D4
:020D75007F8E6F
:100D7700C293C291D293E4FEC291EF139292D291A1
:100D8700EFC313FF0EBE08F0E4FEC291ED1392927B
:0C0D9700D291EDC313FD0EBE08F0C29314
:010DA300222D
:100F3900C293C291D293E4FDC291EF139292D291DE
:100F4900EFC313FF0DBD08F0E4FDC291EEC313FE1C
:100F5900309203430680D2910DBD08EEC293AF06CD
:010F69002265
:0910AF00E4FD7F8E120D77AF39CC
:1010B800EF75F00A84FEEF75F00A84AFF0EEC454C1
:0310C800F02FFF07
:0110CB002202
:03110500120F398D
:10110800EFC4540FFEEF540FFFEE75F00AA42FFF43
:0111180022B4
:040CF200AC07AA059C
:100CF600E4FD7F8E120D77AF041210B8AD077F802A
:100D0600120D77AF021210B8AD077F82120D77AFC2
:100D1600031210B8AD077F84120D77AF0B1210B80F
:100D2600AD077F86120D77AF0C1210B8AD077F881E
:100D3600120D77E50D75F06484E5F024D0FF1210EE
:0F0D4600B8AD077F8C120D777D807F8E020D7701
:100DA4007F851211058F3A7F831211058F377F815A
:100DB400120F391211088F267F87120F391211086A
:100DC4007538008F397F89120F3912110875270081
:100DD4008F287F8D120F39121108EF24D0F534E4D7
:0B0DE4003407F5337D807F8E020D7711
:070FC9001208297F0A7E00D7
:100FD000D3EF9400EE940040147D6E7C00ED1D7004
:0D0FE000011CED4C70F7EF1F70E61E80E362
:010FED0022E1
:10082900E53A75F00A120690F542E53A75F00A12B2
:10083900069085F048E53775F00A120690F547E508
:100849003775F00A12069085F04AE52675F00A1206
:100859000690F549E52675F00A12069085F04BAE2B
:1008690033AF347C037DE81206C48E298F2AAE3358
:10087900AF347C007D641206C47C007D0A1206C474
:100889008C2B8D2CAE33AF347C007D0A1206C47CD0
:10089900007D0A1206C48C2E8D2FAE33AF347C0036
:1008A9007D0A1206C48C308D31AE27AF287C007DBD
:1008B9000A1206C48E3B8F3CAE27AF287C007D0A06
:1008C9001206C48C3D8D3EAE38AF397C007D0A12CC
:1008D90006C48E3F8F40AE38AF397C007D0A1206C0
:0608E900C48C438D442283
:080A5B008E0E8F0F8D828C833B
:100A6300E582640145836008E5826402458370136F
:100A7300740C2582F582E43583F583E50F150F7039
:100A830002150EE5822401FFE43583FE7C007D031D
:100A93001206B27D05120719AC06AD07E58225E003
:100AA300FFE58333FEEF2BFFEE3ACF2DCF3CFEE580
:100AB3000F2FFDE50E3EFCE50FAE0E7802CEA2E74A
:100AC30013CE13D8F82DFBEC3EFAAE0EAF0F7C001D
:100AD3007D64120719C3EB9FFBEA9EFAAE0EAF0FBC
:100AE3007C017D90120719EF2BFFEE3AFE7C007D0F
:0B0AF30007120719ED2401FFE43CFE90
:010AFE0022D5
:1009B500AB39AA38AD28AC27AF34AE33120A5B8FFA
:1009C50032E53214B407004003020A5A9009DF7574
:1009D500F003A4C58325F0C583730209F4020A0256
:1009E500020A10020A1E020A2C020A3A020A487F6B
:1009F500871210E97FD21210587FBB80527F871271
:100A050010E97FB61210587FFE80447F871210E9E7
:100A15007FC81210587FFD80367F871210E97FCB83
:100A25001210587FC480287F871210E97FCE1210DC
:100A3500587FE5801A7F871210E97FC11210587F11
:100A4500F9800C7F871210E97FC81210587FD512E4
:060A55001058120FCC2224
:10075D001208297F801210E9E52A2430FF12105863
:10076D00120FCCE52C2430FF121058120FCC1210A2
:10077D0053120FCCE5312430FF1210587F83121025
:10078D00E9E53C2430FF121058120FCCE53E243021
:10079D00FF121058120FCC7F851210E9E54024305E
:1007AD00FF121058120FCCE5442430FF12105812CE
:1007BD000FCC120FCC7F911210E9E5422430FF12BD
:1007CD001058120FCCE5482430FF121058120FCCE0
:1007DD007F931210E9E5472430FF121058120FCC09
:1007ED00E54A2430FF121058120FCC7F951210E9F4
:1007FD00E5492430FF121058120FCCE54B2430FF81
:10080D00121058120FCC7F971210E97F201210583A
:0C081D007F201210587F0A7E00020FD0CE
:10001E00C2B6E52570030203D230A1030201FD7FB3
:10002E00057E00120FD030A1030201FD12000E302A
:10003E00A1FDE5256401703C0526FD7F8E120D772E
:10004E00AF261210B8AD077F80120D70E526B43CB6
:10005E0003E4F526120FC97F951210E9E549243005
:10006E00FF121058120FCCE54B2430FF1210587FA0
:10007E00951210E9E525640270430537FD7F8E1257
:10008E000D77AF371210B8AD077F82120D707F64F7
:10009E007E00120FD0E537B43C03E4F537120FC9DA
:1000AE007F931210E9E5472430FF121058120FCC3F
:1000BE00E54A2430FF1210587F931210E9E52564AB
:1000CE0003703F053AFD7F8E120D77AF3A1210B8CE
:1000DE00AD077F84120D70E53AB41803E4F53A12B9
:1000EE000FC97F911210E9E5422430FF1210581209
:1000FE000FCCE5482430FF121058120FCC7F91120E
:10010E0010E9E5256404704A0539E53970020538B1
:10011E001210AFAD077F86120D70E539641F45389A
:10012E007005F538753901120FC97F851210E9E592
:10013E00402430FF121058120FCCE5442430FF1229
:10014E001058120FCC7F851210E91209B57F851257
:10015E0010E9E525640570530528E528700205278A
:10016E00E4FD7F8E120D77AF281210B8AD077F8891
:10017E00120D70E528640D45277005F527752801C9
:10018E00120FC97F831210E9E53C2430FF1210587C
:10019E00120FCCE53E2430FF121058120FCC7F8385
:1001AE001210E91209B57F831210E9E52564067075
:1001BE003E0534E53470020533120D55E534B4F8BE
:1001CE000BE533B407067533077534E5120FC97F97
:1001DE00811210E9121053120FCCE5312430FF12A8
:1001EE0010587F811210E91209B57F811210E93083
:1001FE00A0030203D27F057E00120FD030A00302AF
:10020E0003D212000E30A0FDE5256401703C1526C8
:10021E00FD7F8E120D77AF261210B8AD077F8012BC
:10022E000D70E526B4FF0375263B120FC97F95129C
:10023E0010E9E5492430FF121058120FCCE54B247B
:10024E0030FF1210587F951210E9E5256402703CBC
:10025E001537FD7F8E120D77AF371210B8AD077FB1
:10026E0082120D70E537B4FF0375373B120FC97F4D
:10027E00931210E9E5472430FF121058120FCCE507
:10028E004A2430FF1210587F931210E9E5256403BB
:10029E00703F153AFD7F8E120D77AF3A1210B8AD42
:1002AE00077F84120D70E53AB4FF03753A17120FEB
:1002BE00C97F911210E9E5422430FF121058120F37
:1002CE00CCE5482430FF121058120FCC7F9112103B
:1002DE00E9E5256404704DE53915397002153812BB
:1002EE0010AFAD077F86120D70E539B4FF0BE53800
:1002FE00B4FF0675380075391E120FC97F851210AE
:10030E00E9E5402430FF121058120FCCE54424309A
:10031E00FF121058120FCC7F851210E91209B57F0B
:10032E00851210E9E52564057056E528152870023A
:10033E001527E4FD7F8E120D77AF281210B8AD078A
:10034E007F88120D70E528B4FF0BE527B4FF067504
:10035E00270075280C120FC97F831210E9E53C2483
:10036E0030FF121058120FCCE53E2430FF121058F9
:10037E00120FCC7F831210E91209B57F831210E998
:10038E00E5256406703EE534153470021533120D02
:10039E0055E534B4D90BE533B40706753307753418
:1003AE00F8120FC97F811210E9121053120FCCE50B
:1003BE00312430FF1210587F811210E91209B57FD7
:0503CE00811210E9227C
:041012007F0A7E00D3
:0A101600EF1FAC0670011E4C6012C3
:10102000E4F510E510C394FA50EC00000000051040
:0210300080F14D
:01103200229B
:10111900758901758C3C758AB0D2AFD2A9D28CD2AF
:04112900A8D288229E
:0A000E00C2A37F88121155D2A3226D
:10112D00C2B5D2B6D2B400000000E580339203C23E
:03113D00B4A20356
:01114000228C
:1010E90012112D40FBC2B5C2B6C2B400008F8000F8
:0C10F900000000D2B400000000C2B422CD
:05105300E52F2430FF31
:1010580012112D40FBD2B5C2B6C2B48F8000000079
:0A10680000D2B400000000C2B42260
:100ECA00D2B77F341210E97F057E001210167F30E8
:100EDA001210E97F057E001210167F0C1210E97FAE
:100EEA00057E001210167F011210E97F057E00129E
:0D0EFA0010167F061210E91F7E0002101670
:100E3A00121012E4FDFF121033E4FDED900F9B93A4
:100E4A00FF60061210580D80F27F921210E9E4FD3D
:100E5A00ED900FBE93FF1210581210120DBD0AF03A
:100E6A00E4FD7F03121033E4FDED900FAB93FF60B6
:070E7A00061210580D80F272
:010E8100224E
:10107200C2A27F677E00EF1F70011EEF4E70F7D293
:0E108200A27E007F04EF1F70011EEF4E70F77C
:01109000223D
:100FEE00C2A20FBF0000D2A20FBF00000FBF0000B1
:100FFE00A2A292027E007F08EF1F70011EEF4E70BC
:03100E00F7A20244
:0110110022BC
:1010CC00E4FD7C01120FEEE433FFC4333333548060
:0C10DC00FEEDC3134EFD0CBC09EAAF058D
:0110E80022E5
:100E82007E01EF139202EFC313FF30021BC2A20BCB
:100E9200BB00000BBB0000D2A27A007B08EB1B70E8
:100EA200011AEB4A70F7801BC2A27A007B08EB1B87
:100EB20070011AEB4A70F7D2A20BBB00010A0BBBFE
:070EC20000010A0EBE09BB8E
:010EC9002206
:101141001210727F017E001210167FCC120E827F68
:0411510044020E82C4
:100B8B001210727F017E001210167FCC120E827F24
:100B9B00BE120E821210CCAB071210CC7535008F23
:100BAB0036E536753600F535AF03EF4236E4AC3536
:100BBB00AD361205D6E4FBFA7980783D1204CB8F63
:100BCB00248E238D228C21E4FFFE7D207C41AB24DF
:100BDB00AA23A922A8211204CBE4FBFAF9783F122D
:100BEB0003DA12060F8E358F36AF24AE23AD22AC4F
:100BFB00217BCD7ACC794C783D1203DA8F248E236E
:080C0B008D228C21AE35AF36BD
:010C130022BE
:100C1400121141120B8BAB07AA067C037DE8120666
:100C2400C47E007F64CFCDCFCECCCE1206C4EF24D9
:100C340030F55B7C007D64AF03AE021206C47E0017
:100C44007F0ACFCDCFCECCCE1206C4EF2430F55CD4
:100C5400755D2EAE02AF037C007D0A1206C4ED243E
:100C640030F55E7F881210E9E4F54D7452254DF895
:100C7400E6FF121058121012054DE54DC3940E40B4
:010C8400EA85
:010C8500224C
:10109100758911758C3C758AB0758D3C758BB0D294
:0E10A100AFD2A9D2ABD28CD28ED2A8D28822E6
:100F0700121012121091120ECA120E3A12075D7FBA
:100F17008F1210E97FA11210587FE6121058120D98
:100F2700A4120FCC1209B512001E121012120DA432
:020F370080F543
:10115500AD071FED600BE4FEEEC3940D50F20E805B
:01116500F792
:011166002266
:10103300EF70047F808013BF01047F90800CBF0298
:10104300047F888005BF03027F98EF2DFF0210E91C
:03000B00020C865E
:100C8600C0E0C0F0C083C082C0D075D000C000C034
:100C960001C002C003C004C005C006C007758C3C75
:100CA600758AB0052DE52D640E702612075DB2908B
:100CB600752D000526E526B43C177526000537E593
:100CC60037B43C0D753700053AE53AB41803753A62
:100CD60000D007D006D005D004D003D002D001D072
:0C0CE60000D0D0D082D083D0F0D0E0321B
:03001B00020DEFE4
:100DEF00C0E0C0F0C083C082C0D075D000C000C0CA
:100DFF0001C002C003C004C005C006C007758D3C0A
:100E0F00758BB00550E550B41506755000120C14D3
:100E1F00D007D006D005D004D003D002D001D00027
:0B0E2F00D0D0D082D083D0F0D0E032D1
:030003000208EF01
:1008EF00C0E0C0F0C083C082C0D075D000C000C0CF
:1008FF0001C002C003C004C005C006C007C2B630A5
:10090F00B20302099A7F057E00120FD020B2211286
:10091F00000E052530B2FDE525B4011475610112F5
:10092F00075DC28CC28E7F951210E97F0F1210E9FE
:10093F00E525B4020812075D7F931210E9E525B48F
:10094F00030812075D7F911210E9E525B404081220
:10095F00075D7F851210E9E525B4050812075D7F55
:10096F00831210E9E525B4060812075D7F81121086
:10097F00E9E525B4071575610012075D7525007F40
:10098F000C1210E9D28CD28E120FCCD007D006D019
:10099F0005D004D003D002D001D000D0D0D082D067
:0609AF0083D0F0D0E0321D
:1003D30002067BE86480F8E933E83360110460F0D7
:1003E300ED33EC337009E8FCE9FDEAFEEBFF220490
:1003F30060DED3EB9FEA9EE99DE8C2E78CF0C2F78B
:1004030095F0400CE8CCF8E9CDF9EACEFAEBCFFB56
:1004130012064685D0F05804700320D5B3E8047063
:10042300075002B2D502068592D5EC0460F7E4CCFE
:10043300C0E0C398F8603B94186008400DD0E0FB1F
:1004430002065DE4FBFAC9FC8028E830E406E4C94F
:10045300FBE4CAFCE830E305E4C9CACBFCE8540773
:100463006010F8C3E913F9EA13FAEB13FBEC13FC7E
:10047300D8F130F52FC3E49CFCEF9BFFEE9AFEED21
:1004830099FDD0E0FBEF4E4D4C701222DB030206C8
:1004930082EC2CFCEF33FFEE33FEED33FDED30E762
:1004A300EB02065DEF2BFFEE3AFEED39FDD0E0FBEC
:1004B30050130BBB0003020685ED13FDEE13FEEF95
:0804C30013FFEC13FC02065DBF
:1004CB00EC4D6011E8497017ED33EC3304600DE42B
:1004DB00FCFFFEFD22E933E8330470F802067B12C1
:1004EB00064658046009E4CC2481500628500902C2
:1004FB000685284003020682C0E0EB4A7044B980AF
:10050B0006D0E0FB020671EF4E701CBD8008EBFFBE
:10051B00EAFEE9FD80EBE98DF0A4FEE5F00205B4FF
:10052B00E9CDF9EAFEEBFFEF89F0A4FCE5F0CE890B
:10053B00F0A42EFFE435F0CD89F0A42DFEE435F0C8
:10054B008067EF4E7005BD80D780C3EF8BF0A4ACF6
:10055B00F0EE8BF0A42CFCE435F0F8EF8AF0A42C31
:10056B00E5F038FCE433CB8DF0A42CFCE5F03BF844
:10057B00EE8AF0A42CFCE5F038F8E433CF89F0A434
:10058B002CFCE5F038CF3400CE89F0A42FFFE5F03A
:10059B003EFEE433C98DF0A42EFEE5F039CD8AF092
:1005AB00A42FFFE5F03EFEE43DFD33D0E0FB50070A
:1005BB000BBB000F020685EC2CFCEF33FFEE33FE7A
:0605CB00ED33FD02065DA8
:1005D10075F020800E75F010800575F0087D007EA5
:1005E100007F003392D530D50312074FEC33401012
:1005F100EF33FFEE33FEED33FDEC33FCD5F0ED22AE
:0E060100E5F0247EA2D513CC92E7CDCEFF22E9
:10060F00EDD2E7CD33EC3392D524814006E4FFFEE3
:10061F00FDFC22FCE4CFCECDCC24E0501174FF8042
:10062F00EDC3CC13CCCD13CDCE13CECF13CF0470DF
:07063F00F030D5DE02074F89
:10064600E9D2E7C933E833F892D5EDD2E7CD33ECFA
:0706560033FC5002B2D52273
:10065D00EC30E7100FBF000C0EBE00080DBD0004FE
:10066D000BEB6014A2D5EB13FCED92E7FD2274FFAA
:10067D00FCFDFEFF22E480F8A2D574FF13FC7D8003
:03068D00E480EF17
:100B0B00020F07E493A3F8E493A34003F68001F2EA
:100B1B0008DFF48029E493A3F85407240CC8C333EB
:100B2B00C4540F4420C8834004F456800146F6DFBA
:100B3B00E4800B0102040810204080900F6AE47ED1
:100B4B00019360BCA3FF543F30E509541FFEE493AF
:100B5B00A360010ECF54C025E060A840B8E493A376
:100B6B00FAE493A3F8E493A3C8C582C8CAC583CAA1
:100B7B00F0A3C8C582C8CAC583CADFE9DEE780BE59
:010F9A000056
:10069000C2D530F707B2D563F0FF05F030E70CB2F2
:1006A000D5F4048463F0FF05F080018430D502F4B2
:0206B000042222
:1006B200EF8DF0A4A8F0CF8CF0A428CE8DF0A42E5C
:0206C200FE2216
:1006C400BC000BBE0029EF8DF084FFADF022E4CC1A
:1006D400F875F008EF2FFFEE33FEEC33FCEE9DECE3
:1006E400984005FCEE9DFE0FD5F0E9E4CEFD22ED29
:1006F400F8F5F0EE8420D21CFEADF075F008EF2F73
:10070400FFED33FD4007985006D5F0F222C398FD63
:050714000FD5F0EA2200
:10071900C2D5EC30E709B2D5E4C39DFDE49CFCEEFB
:1007290030E715B2D5E4C39FFFE49EFE1206C4C3A9
:10073900E49DFDE49CFC80031206C430D507C3E4A4
:060749009FFFE49EFE226A
:0E074F00C3E49FFFE49EFEE49DFDE49CFC22BB
:00000001FF
