:030000000200906B
:0C009000787FE4F6D8FD75810C02000EAC
:10007A003F065B4F666D7D077F6F777C395E7971CE
:06008A00FEFDFBF7EFDFB5
:10000E00E4F50CF50AF508F509758901758CED75A1
:10001E008A5BD2AFD2A9D28CE50BB414FBE4F50BFC
:10002E000508E508B40703750801D2A6E508900097
:10003E007A93F580C2A6D2A7E50990008A93F5803F
:0E004E00C2A70509E509B406CFE4F50980CA8A
:10005C00D3EF9400EE940040147D6E7C00ED1D7087
:0D006C00011CED4C70F7EF1F70E61E80E3E5
:010079002264
:03000B0002009C54
:09009C00758CED758A5B050B32D1
:00000001FF
