:03000000020257A2
:0C025700787FE4F6D8FD75817F02029EDE
:10002600636D643D30266D73673D70696E67004190
:10003600542B5253540041540041542B43574D4FB7
:1000460044453D330041542B43574A41503D2252CB
:10005600616D736579222C22313132323333343477
:10006600220041542B4349504D4F44453D310041F8
:10007600542B43495053544152543D225443502229
:100086002C2262656D66612E636F6D222C383334C7
:10009600340041542B43495053454E4400636D642C
:1000A6003D31267569643D006436623163626337AB
:1000B60064326132313033616639643333623833E6
:1000C60062326266363532630026746F7069633D4C
:1000D600004C6967687430303100266D73673D6F78
:1000E6006E00266D73673D6F6666004552524F522D
:1000F600006C756D696E616E63653A202020202064
:100106002000546865204C65642069733A204F4E80
:10011600202000546865204C65642069733A204F9E
:1001260066662000546865204C65642069733A2031
:100136004F4E202000546865204C65642069733A50
:10014600204F4E202000546865204C65642069735A
:100156003A204F4E202000FEFDFBF7EFDFBF7FFC6D
:10016600F3CF3FFAF5AF5FF00F7FBFDFEFF7FBFD91
:0B017600FE3FCFF3FC5FAFF5FA0FF087
:06000300010900010B00E1
:07047F001204E17FE87E0397
:10048600D3EF9400EE940040147D6E7C00ED1D7059
:0D049600011CED4C70F7EF1F70E61E80E3B7
:0104A3002236
:100365007A0079681204E17FE87E031204867A0038
:1003750079751204E17FE87E031204867A00799884
:100385001204E17FE87E031204867A0079A3120045
:100395000E7A0079AE12000E7A0079CF12000E7A2D
:1003A5000079D712000E7F051203B77F0D1204FBEB
:0203B5007F05C2
:0703B700AE071FEE70FA22F1
:1004A400759850758780758921758DFA858D8BD2E5
:1004B400AFC2ACD28E758CD8758AF0D2A9D28C22F8
:0E04FB00C2ACC2998F993099FDC299D2AC2241
:1004E10012040AFF600C1203B2740129F9E43AFA0A
:0A04F10080EE1203AB7F0A0204FB49
:10000E0012040AFF600C1203B2740129F9E43AFAE1
:03001E0080EE224F
:090509007BFF7A0079260204E16F
:1004C400E4FBFAEB90015D93F5907F647E001204E7
:0C04D400860BBB00010AEB642D4A70E7A8
:0104E00022F9
:100181007E007F647D007B007A00790D12042312CA
:1001910004A41204827BFF7A00793512047F7A006D
:1001A100793C12047F7A00793F12047F7A00794BFF
:1001B1001204E17F407E1F1204861203657F0A123A
:1001C10004FB750B01120482C2A0E509B401FB75A1
:1001D10077FF7578007579E07B007A00790D12025E
:1001E100E3EA494B600FD2A07F327E0012048612EF
:1001F10004C40202427577FF7578007579E87B00C7
:100201007A00790D1202E3EA494B600E7590FF7F87
:10021100327E00120486C2A080277577FF757800B0
:100221007579F17B007A00790D1202E3EA494B609E
:1002310010750B017BFF1203657F0A1204FB750B1E
:10024100017E007F647D007B007A00790D1204231A
:06025100E4F5090201CBF7
:0300230002044F85
:10044F00C0E0C0D075D000C00030981BC29885990D
:10045F000C740D2571F8A60C0571E50CB40A0A751C
:10046F0071007509018002C299D000D0D0D0E0325E
:03000B000203BE2F
:1003BE00C0E0C083C082C0D075D000C001C002C0F2
:1003CE0003C006C007758CD8758AF00508E508B419
:1003DE006417750800050AE50AC3941E400BE50B69
:1003EE00B40103120509750A00D007D006D003D058
:0C03FE0002D001D0D0D082D083D0E032F9
:10026300020181E493A3F8E493A34003F68001F22F
:1002730008DFF48029E493A3F85407240CC8C3339C
:10028300C4540F4420C8834004F456800146F6DF6B
:10029300E4800B0102040810204080900003E47EF8
:1002A300019360BCA3FF543F30E509541FFEE49360
:1002B300A360010ECF54C025E060A840B8E493A327
:1002C300FAE493A3F8E493A3C8C582C8CAC583CA52
:1002D300F0A3C8C582C8CAC583CADFE9DEE780BE0A
:0100090000F6
:10040A00BB010689828A83E0225002E722BBFE02F0
:09041A00E32289828A83E4932223
:1002E3008B748A758976AB77AA78A97912040A6028
:1002F30063AB74AA75A97612040A605F85777A8561
:10030300787B85797C8B7D8A7E897FAB7AAA7BA972
:100313007C12040AFF6023AB7DAA7EA97F12040A24
:100323006F701704257CF57CE4357BF57B74012520
:100333007FF57FE4357EF57E80D1AB7AAA7BA97CFD
:1003430012040A7002800D74012576F576E4357582
:10035300F575809DAB74AA75A976227B007A007926
:02036300002276
:10042300EF4E6012EF60010EEDBB010B89828A83F0
:10043300F0A3DFFCDEFA2289F05007F709DFFCA9FD
:0C044300F022BBFEFCF309DFFCA9F02254
:00000001FF
