:03000000020BF000
:0C0BF000787FE4F6D8FD758177020C37A1
:0D0E3F006C696768743A00252E32660A005F
:100CBD0011226C756D696E616E63653A202020207E
:100CCD002020001133546865204C65642069733A07
:100CDD00204F4E2020001144546865204C6564203F
:090CED0069733A204F666620008D
:100E09008F5C120DBE7F90120C7CE55C4440FF1292
:050E19000C7C020DF34A
:100E1E00120DBE7F91120C7C120D288F5C120DF3F9
:020E2E00AF5CB7
:010E3000229F
:100DDB00759850758920758780758DF4758BF4D255
:080DEB00ACD2AFD28ED29922E6
:0D0E31007FA77EAB7D10DDFEDEFADFF60050
:010E3E002291
:100A6200120DDB120D7E7F80120E4CE4F5577422BC
:100A72002557F8E6FF120E547F0A7E00120D0A0572
:100A820057E557C3941040E6D290E4FF120E0912C4
:100A92000E1E7E00AD077C00E41202A68F5B8E5A0A
:100AA2008D598C58E4FFFE7DC87C42AB5BAA5AA9E3
:100AB20059A8581200FBE4FBFA797F78431202042A
:100AC200A804A905AA06AB07E4FFFE7DC87C421272
:100AD20000068F5B8E5A8D598C581202DF8E558F0D
:100AE200567C007D6412055A7E007F0ACFCDCFCEA0
:100AF200CCCE12055AEF2430F52DAE55AF567C0000
:100B02007D0A12055AED2430F52E752F2EE4FFFED4
:100B12007DC87C42AB5BAA5AA959A8581200FBE4D3
:100B2200FBFA7980783F12000A1202DFAB07AA06AD
:100B32007C007D0A12055A7C007D0A12055AED24BA
:100B420030F530AE02AF037C007D0A12055AED2467
:100B520030F5317F80120E4CE4F55774222557F898
:100B6200E6FF120E547F0A7E00120D0A0557E55762
:100B7200C3941040E6C3E5569414E55594005026FC
:100B8200C2907FC0120E4CE4F55774332557F8E635
:100B9200FF120E547F0A7E00120D0A0557E557C355
:100BA200941040E68024D2907FC0120E4CE4F55798
:100BB20074442557F8E6FF120E547F0A7E00120D88
:100BC2000A0557E557C3941040E67BFF7A0E793F3A
:100BD2001206557BFF7A0E7946855B62855A6185DE
:0E0BE200596085585F120655120E31020A8CBA
:100DBE00D2A10000000000D2A00000000000C2A0DE
:0D0DCE000000000000C2A100000000002293
:100DF300C2A00000000000D2A10000000000D2A0A9
:060E0300000000000022C7
:100C7C00E4F55EFEC2A10000000000EF3392A0EF8D
:100C8C0025E0FFD2A100000000000EBE08E6C2A1C4
:100C9C000000000000D2A00000000000D2A1003033
:100CAC00A00BE55DC394FA5004055D80F2C2A1006F
:010CBC002215
:100D2800E4FFC2A10000000000D2A000FED2A10092
:100D380000000000EF25E0FF30A00343070100009A
:0E0D4800000000C2A100000000000EBE08DF87
:010D5600227A
:100CF700C2A4C2A68F807F0A7E00120D0AD2A47FEB
:030D0700147E0057
:100D0A00D3EF9400EE940040147D0A7C00ED1D7030
:0D0D1A00011CED4C70F7EF1F70E61E80E32A
:010D270022A9
:100DA000D3EF9400EE940040147D647C00ED1D7040
:0D0DB000011CED4C70F7EF1F70E61E80E394
:010DBD002213
:080E4C00C2A5120CF7C2A4229A
:080E5400D2A5120CF7C2A42282
:100D7E00C2A47F38120E4C7F0A7E00120D0A7F0C21
:100D8E00120E4C7F06120E4C7F01120E4C7F80020B
:020D9E000E4CF9
:1000030002034BE86480F8E933E83360110460F0DD
:10001300ED33EC337009E8FCE9FDEAFEEBFF220463
:1000230060DED3EB9FEA9EE99DE8C2E78CF0C2F75E
:1000330095F0400CE8CCF8E9CDF9EACEFAEBCFFB2A
:1000430012031685D0F05804700320D5B3E804706A
:10005300075002B2D502035592D5EC0460F7E4CC05
:10006300C0E0C398F8603B94186008400DD0E0FBF3
:1000730002032DE4FBFAC9FC8028E830E406E4C956
:10008300FBE4CAFCE830E305E4C9CACBFCE8540747
:100093006010F8C3E913F9EA13FAEB13FBEC13FC52
:1000A300D8F130F52FC3E49CFCEF9BFFEE9AFEEDF5
:1000B30099FDD0E0FBEF4E4D4C701222DB0302039F
:1000C30052EC2CFCEF33FFEE33FEED33FDED30E766
:1000D300EB02032DEF2BFFEE3AFEED39FDD0E0FBF3
:1000E30050130BBB0003020355ED13FDEE13FEEF9C
:0800F30013FFEC13FC02032DC6
:1000FB00EC4D6011E8497017ED33EC3304600DE4FF
:10010B00FCFFFEFD22E933E8330470F802034B12C7
:10011B00031658046009E4CC2481500628500902C8
:10012B000355284003020352C0E0EB4A7044B980E8
:10013B0006D0E0FB020341EF4E701CBD8008EBFFC5
:10014B00EAFEE9FD80EBE98DF0A4FEE5F00201E4A7
:10015B00E9CDF9EAFEEBFFEF89F0A4FCE5F0CE89DF
:10016B00F0A42EFFE435F0CD89F0A42DFEE435F09C
:10017B008067EF4E7005BD80D780C3EF8BF0A4ACCA
:10018B00F0EE8BF0A42CFCE435F0F8EF8AF0A42C05
:10019B00E5F038FCE433CB8DF0A42CFCE5F03BF818
:1001AB00EE8AF0A42CFCE5F038F8E433CF89F0A408
:1001BB002CFCE5F038CF3400CE89F0A42FFFE5F00E
:1001CB003EFEE433C98DF0A42EFEE5F039CD8AF066
:1001DB00A42FFFE5F03EFEE43DFD33D0E0FB5007DE
:1001EB000BBB000F020355EC2CFCEF33FFEE33FE81
:0601FB00ED33FD02032DAF
:10020100020355EC5D046005E85904700302034BD9
:10021100120316580460F6EC4860F2EC7004FDFE1F
:10022100FF22C860DB2481C85009C39860025006D0
:100231000203529850CAF582E9294B4A7005AB82F4
:1002410002034175F0007C1A7880C3EF9BEE9AEDB2
:1002510099400DC3EF9BFFEE9AFEED99FDE842F048
:10026100DC23ACF0D0E0FFD0E0FED0E0FDAB82209B
:10027100E7101BEB60BAEC2CFCEF33FFEE33FEED25
:1002810033FD02032DE803F830E705C0F075F000F7
:10029100EF2FFFEE33FEED33FD40B830E7C280AA09
:1002A10075F020800E75F010800575F0087D007ED8
:1002B100007F003392D530D5031205AFEC334010E7
:1002C100EF33FFEE33FEED33FDEC33FCD5F0ED22E1
:0E02D100E5F0247EA2D513CC92E7CDCEFF221D
:1002DF00EDD2E7CD33EC3392D524814006E4FFFE17
:1002EF00FDFC22FCE4CFCECDCC24E0501174FF8076
:1002FF00EDC3CC13CCCD13CDCE13CECF13CF047013
:07030F00F030D5DE0205AF5E
:1005F300E573245FF8E6057322785C300702785FC1
:10060300E475F0011205BD0205022000EB7F2ED236
:10061300008018EF540F2490D43440D4FF30040BDF
:10062300EF24BFB41A0050032461FFE57460021580
:10063300740577E5777002057630070D785CE4750D
:10064300F0011205BDEF020548020D577403D207EE
:100653008003E4C207F5738B5C8A5D895EE4F574FD
:10066300F576F577E57460077F2012062E80F57521
:1006730075FFC201C200C202C203C205C206C2089C
:100683001205FCFF700D3007057F0012063FAF77A0
:10069300AE7622B4255FC2D5C2041205FCFF24D076
:1006A300B40A00501A75F00A787430D50508B6FFFD
:1006B3000106C6A426F620D5047002D20380D924ED
:1006C300CFB41A00EF5004C2E5D20402092CD201C0
:1006D30080C6D20080C0D20280BCD2D580BAD205F7
:1006E30080B47F2012062E2002077401B5740040E7
:1006F300F11205F3FF12062E020667D208D2068016
:10070300951205F3FB1205F3FA1205F3F94A4B7040
:100713000679237A0A7BFF20022EE574602A7E0085
:100723008E8275830012051B60060EEE657570F0F0
:10073300C2D5EBC0E0EAC0E0E9C0E0EE12098CD01C
:10074300E0F9D0E0FAD0E0FB120502FF60AAEBC0AB
:10075300E0EAC0E0E9C0E012062ED0E02401F9D0BF
:10076300E03400FAD0E0FBE5750460DCD575D98090
:1007730087D20280A212096F60F7E5757001041237
:100783000360A975600DE575600914F575120A1605
:10079300EF60F3EA30E702F404C3995077EAF425F3
:1007A300750430E701E404F575800D12096F60C12B
:1007B300EA05752575120360EA7872F630E701E4FD
:1007C300257504D575042005011412098CE4C0E0D5
:1007D300120A167872E6601320E70714F61206165B
:1007E300802204F6D0E014C0E07F00120616E575FF
:1007F300600712060D1575800B30050312060DD028
:10080300E0020667D0E00480C512096F60A0E575B9
:10081300041203607872EAF6E575200502600104AC
:05082300240412098C01
:1008280074FF04C0E0120A16120616E575200502C8
:10083800600312060DD0E0B575E87F4512062078F2
:1008480072E67F2B30E7047F2DF404C0E012062EF9
:10085800D0E075F00A84C0F0120617D0E01206172F
:10086800020667791080027908C206C2088008D299
:10087800D5790A8004790AC2D5E575047002F57540
:10088800E4FAFDFEFF1205F3FC7B082001131205B4
:10089800F3FD7B1030000A1205F3FE1205F3FF7B0F
:1008A80020EC3382D592D55013C3E43000069FFF65
:1008B800E49EFEE42001039DFDE49CFCE4CBF8C229
:1008C80001EC700CCFCECDCCE824F8F870F380178B
:1008D800C3EF33FFEE33FEED33FDEC33FCEB33FBBC
:1008E800994002FB0FD8E9EB300105F8D0E0C44885
:1008F800B201C0E00AEC4D4E4F78207B0070C2EA8E
:10090800B5750040BCC0E012098ED0F0D0E02001DF
:1009180004C4C0E0C4B201C0F0120617D0F0D5F08C
:10092800EB0206671205CD070453086B5806D54C31
:1009380006D142086F4F08774408774906EA43080A
:100948007D5507AE46080C450778470A435006D937
:100958002D06DD2E07002B06E12306FE200A2C2A91
:10096800069948000006F8E575B4FF037575061288
:1009780005F3FC1205F3FD1205F3FE1205F3FF78EB
:100988006B02038F790AA2D5200314300509B91028
:10099800020404B9080104A2D5200602500104206B
:1009A80002689202B574005034C0E07F2030031909
:1009B8007F30A20272067205500F1209E5C202C208
:1009C80006C205C2087F30800F300503E9C0E01277
:1009D800062E300503D0E0F9D0E0B574CC30051709
:1009E8007F30B9100C12062E7F583004077F7880AC
:1009F80003B9080312062E3002057F2D02062E7F4A
:100A0800202008F87F2B2006F322920280CF7F0057
:100A1800B407005005246BF8E6FF22286E756C6C4D
:100A28002900D2011205F33001F8C201787430D5DB
:100A38000108F60206992D504349581205F324037C
:100A4800B405004001E4900A3E9312061F743A125E
:0A0A5800061FD20375740402086B38
:10031600E9D2E7C933E833F892D5EDD2E7CD33EC2D
:0703260033FC5002B2D522A6
:10032D00EC30E7100FBF000C0EBE00080DBD000431
:10033D000BEB6014A2D5EB13FCED92E7FD2274FFDD
:10034D00FCFDFEFF22E480F8A2D574FF13FC7D8036
:03035D00E480EF4A
:10036000F920E72824F950037907E4F42402FB1864
:10037000DBFDE624FB5014E9600DE4F618E604F614
:0F038000B40A08E4F6D9F57401F60A22C2D522B0
:10038F00ED33EC3392D5FA602AB4FF33EDC2E77B3D
:10039F00FF60067A0379B4E4227A0379BD20D5048D
:1003AF007A0379B8224E614E002B494E46002D49F3
:1003BF004E4600E47A08F608DAFC7B00740722E860
:1003CF00C0E0ECC0E0EDC0E0EEC0E0EFC0E0EA75E9
:1003DF00F010A4CAABF075F04DA42BFBE435F0FC84
:1003EF00EA2410FAEB34C5FBEC34D9FCEDC2E7FF7D
:1003FF0075F056A4F42411C5F0F434C58FF0A42A77
:10040F00E5F03BE43CF620E7141204C2D0E0FFD045
:10041F00E0FED0E0FDD0E0FC1202048014F40412E0
:10042F0004C2D0E0FFD0E0FED0E0FDD0E0FC12002F
:10043F00FBD0E0F8E6FAEDD2E7CD33EC332482FBC4
:10044F00E4C3CF33CFCE33CECD33CD33DBF37B0706
:10045F0075F00A846004F6081B0AE5F0F6088FF0C1
:10046F00740AA4FFACF08EF0740AA42CFEACF0500A
:10047F00010C8DF0740AA42CFDE435F0F608DBDED8
:03048F00740722CD
:100492003F8000004120000042C80000447A000072
:1004A200461C400047C35000497424004B189680F4
:1004B2004CBEBC205A0E1BCA6753C21C749DC5AEEB
:1004C200FB60065407601C23231204F0EB543860CF
:1004D200091204DC1204EB1200FBECF8EDF9EEFA5F
:1004E200EFCB22EB1204EB80F1543803241C90046E
:1004F20092FE93FC0EEE93FD0EEE930ECE93FF2230
:100BFC00020A62E493A3F8E493A34003F68001F2A3
:100C0C0008DFF48029E493A3F85407240CC8C333F9
:100C1C00C4540F4420C8834004F456800146F6DFC8
:100C2C00E4800B0102040810204080900CBDE47E8F
:100C3C00019360BCA3FF543F30E509541FFEE493BD
:100C4C00A360010ECF54C025E060A840B8E493A384
:100C5C00FAE493A3F8E493A3C8C582C8CAC583CAAF
:100C6C00F0A3C8C582C8CAC583CADFE9DEE780BE67
:010CF60000FD
:10050200BB010689828A83E0225002E722BBFE02F7
:09051200E32289828A83E493222A
:10051B00BB010CE58229F582E5833AF583E0225095
:10052B0006E92582F8E622BBFE06E92582F8E222DF
:0D053B00E58229F582E5833AF583E49322F9
:10054800BB010689828A83F0225002F722BBFE0192
:02055800F3228C
:10055A00BC000BBE0029EF8DF084FFADF022E4CC85
:10056A00F875F008EF2FFFEE33FEEC33FCEE9DEC4E
:10057A00984005FCEE9DFE0FD5F0E9E4CEFD22ED94
:10058A00F8F5F0EE8420D21CFEADF075F008EF2FDE
:10059A00FFED33FD4007985006D5F0F222C398FDCF
:0505AA000FD5F0EA226C
:0E05AF00C3E49FFFE49EFEE49DFDE49CFC225D
:1005BD00FAE6FB0808E6F925F0F618E6CA3AF6223F
:1005CD00D083D082F8E4937012740193700DA3A3BD
:1005DD0093F8740193F5828883E4737402936860D1
:0605ED00EFA3A3A380DFD1
:100D5700EFB40A07740D120D62740A309811A8993E
:100D6700B8130CC2983098FDA899C298B811F630FC
:070D770099FDC299F59922D4
:00000001FF
