:030000000201C436
:0C01C400787FE4F6D8FD75811C02020B68
:1003C7003F065B4F666D7D077F6FFEFDFBF7EFDF37
:100358000211000002190000021700000213000039
:10036800020A000002080000021B0000020F000041
:09037800010E00010D00010C0052
:06039D00E493F5807F0AE5
:1003A3008F15E515D39400400A75167DD516FD15F6
:0403B3001580EF22A0
:0A03D700C2A47FF41203A3D2A422F3
:0703E100D288D2A8D2AF229E
:1003B700758901758C3C758AB0D2AFD2A9D28C22CF
:1000F400E51445136040AE13AF147C007D0A120270
:10010400B674C72FF58274033EF583E493F590909B
:1001140003D612039DAE13AF147C007D0A1202B6FF
:1001240074C72DF58274033CF583E4932480F59021
:100134009003D512039DE51845176040AE17AF181C
:100144007C007D0A1202B674C72FF58274033EF553
:1001540083E493F5909003D412039DAE17AF187CFB
:10016400007D0A1202B674C72DF58274033CF58330
:10017400E4932480F5909003D312039DAE19AF1A33
:100184007C007D0A1202B674C72FF58274033EF513
:1001940083E493F5909003D212039DAE19AF1A7CB9
:1001A400007D0A1202B674C72DF58274033CF583F0
:1001B400E493F5909003D1E493F5807F0A0203A3BE
:10000E00E510450F70030200F320A0657F14120364
:10001E00A320A05D30A0FD1203D7E50F7053E510AD
:10002E0024FE601F14603424027046051AE51A700F
:10003E00020519D3943BE51994004035E4F519F502
:10004E001A802E0518E51870020517D3943BE51794
:10005E009400401DE4F517F51880160514E514708C
:10006E00020513D39417E51394004005E4F513F538
:10007E001420A1717F141203A320A16930A1FD12D7
:10008E0003D7E50F705FE51024FE602814603E2450
:10009E00027052E51A151A70021519E51AF470035A
:1000AE00E519F470407590FF7F141203A3751900C3
:1000BE00751A3B22E518151870021517E518B4FFCE
:1000CE0024E517B4FF1F75170075183B22E51415AC
:1000DE001470021513E514B4FF0BE513B4FF067587
:0600EE0013007514172237
:100382007590FF1203E11203B7E4F50FF5101200A6
:0B0392000E7F1E1203A31200F480F384
:03000B000202509E
:10025000C0E0C0D0758C40758AFB0512E5127002B3
:100260000511641445117049F511F512051AE51AC6
:1002700070020519D3943BE51994004034751900B8
:10028000751A000518E51870020517D3943BE51799
:100290009400401D7517007518000514E5147002D0
:1002A0000513D39417E513940040067513007514D5
:0602B00000D0D0D0E032C6
:0300030002030BEA
:10030B00C0E0C0D075D000C00720B23A7F05120301
:10031B00A320B2320510E5107002050FC28C6401E8
:10032B00450F7004C2B4D2B3E5106402450F7004DC
:10033B00C2B3D2B4E5106404450F700AD2B3D2B481
:0D034B00F50FF510D28CD007D0D0D0E032E5
:1001D000020382E493A3F8E493A34003F68001F2C0
:1001E00008DFF48029E493A3F85407240CC8C33330
:1001F000C4540F4420C8834004F456800146F6DFFF
:10020000E4800B0102040810204080900358E47E33
:10021000019360BCA3FF543F30E509541FFEE493F3
:10022000A360010ECF54C025E060A840B8E493A3BA
:10023000FAE493A3F8E493A3C8C582C8CAC583CAE5
:10024000F0A3C8C582C8CAC583CADFE9DEE780BE9D
:01038100007B
:1002B600BC000BBE0029EF8DF084FFADF022E4CC2C
:1002C600F875F008EF2FFFEE33FEEC33FCEE9DECF5
:1002D600984005FCEE9DFE0FD5F0E9E4CEFD22ED3B
:1002E600F8F5F0EE8420D21CFEADF075F008EF2F85
:1002F600FFED33FD4007985006D5F0F222C398FD76
:050306000FD5F0EA2212
:00000001FF
