:030000000204A057
:0C04A000787FE4F6D8FD75817E0204E749
:1001AF00636D643D30266D73673D70696E67004106
:1001BF00542B5253540041540041542B43574D4F2D
:1001CF0044453D330041542B43574A41503D225241
:1001DF00616D736579222C223131323233333434ED
:1001EF00220041542B4349504D4F44453D3100416E
:1001FF00542B43495053544152543D22544350229F
:10020F002C2262656D66612E636F6D222C3833343C
:10021F00340041542B43495053454E4400636D64A1
:10022F003D31267569643D00643662316362633720
:10023F00643261323130336166396433336238335B
:10024F0062326266363532630026746F7069633DC1
:10025F00004C6967687430303100266D73673D6FED
:10026F006E00266D73673D6F666600266D73673D82
:10027F006C6564316F6E00266D73673D6C6564311C
:10028F006F666600266D73673D6C6564326F6E0036
:10029F00266D73673D6C6564326F666600266D73FD
:1002AF00673D73686F7700266D73673D616C6C6F88
:1002BF006666004552524F5200FEFDFBF7EFDFBF5F
:1002CF007FFCF3CF3FFAF5AF5FF00F7FBFDFEFF7A4
:0D02DF00FBFDFE3FCFF3FC5FAFF5FA0FF023
:06000300012200012400AF
:070750001208137FE87E038D
:10075700D3EF9400EE940040147D6E7C00ED1D7085
:0D076700011CED4C70F7EF1F70E61E80E3E3
:010774002262
:100610007A0179F11208137FE87E031207577A01F5
:1006200079FE1208137FE87E031207577A027921B8
:100630001208137FE87E031207577A02792C1208FA
:10064000477A0279371208477A0279581208477AAE
:100650000279601208477F051206627F0D12086C4E
:020660007F0514
:07066200AE071FEE70FA2243
:1007BA00759850758780758921758DFA858D8BD2CC
:1007CA00AFC2ACD28E758CD8758AF0D2A9D28C22DF
:0E086C00C2ACC2998F993099FDC299D2AC22CC
:100813001206B5FF600C12065D740129F9E43AFA79
:0A08230080EE1206567F0A02086CF0
:100847001206B5FF600C12065D740129F9E43AFA45
:0308570080EE220E
:09087A007BFF7A0179AF0208133B
:1007DA00E4FBFAEB9002C893F5907F647E0012075F
:0C07EA00570BBB00010AEB642D4A70E7BE
:0107F60022E0
:100026001205AE7E007F567D007B007A007926128F
:1000360006CE1207BA1207537BFF7A0179BE120762
:10004600507A0179C51207507A0179C81207507A99
:100056000179D41208137F407E1F1207571206102B
:100066007F0A12086C752401C2A0E522B401FB7553
:100076000BFF750C02750D697B007A007926120557
:100086002CEA494B6007C2927F03020165750BFF9C
:10009600750C02750D717B007A00792612052CEA23
:1000A600494B6007D2927F06020165750BFF750CFE
:1000B60002750D7A7B007A00792612052CEA494BE7
:1000C6006007C2917F02020165750BFF750C027510
:1000D6000D867B007A00792612052CEA494B6006CC
:1000E600D2917F058079750BFF750C02750D937B98
:1000F600007A00792612052CEA494B6006C2907FE9
:1001060001805C750BFF750C02750D9F7B007A00F4
:10011600792612052CEA494B6006D2907F04803F6F
:10012600750BFF750C02750DAC7B007A00792612F3
:10013600052CEA494B600C7F077E001202EC120781
:10014600DA8021750BFF750C02750DB67B007A00FF
:10015600792612052CEA494B60137590FF7F087EBD
:10016600001202EC7F0A7E001207578027750BFFEC
:10017600750C02750DC27B007A00792612052CEAF1
:10018600494B60107524017BFF1206107F0A120886
:100196006C7524017E007F567D007B007A007926EF
:0901A6001206CEE4F522020070FD
:030023000206FAD8
:1006FA00C0E0C0D075D000C00030981BC298859960
:10070A00257426257CF8A625057CE525B40A0A75F4
:10071A007C007522018002C299D000D0D0D0E0328C
:03000B0002066981
:10066900C0E0C083C082C0D075D000C001C002C044
:1006790003C006C007758CD8758AF00521E521B439
:1006890064177521000523E523C3941E400BE52457
:10069900B4010312087A752300D007D006D003D01D
:0C06A90002D001D0D0D082D083D0E0324B
:1003D90057494649BFD8D6C6CFB5CDB300CEA2D06E
:1003E900C53A52616D7365793131303800CFB5CD79
:1003F900B3B3F5CABCBBAFCDEAB3C9202000BFAACD
:10040900B7A2C9E8BCC63A20B2CCBCCEC8A8005431
:10041900686520C0B6B5C62069733A204F4E2000E2
:1004290054686520B0D7B5C62069733A204F4E206D
:100439000054686520BAECB5C62069733A204F4E5E
:10044900200054686520C0B6B5C62069733A204FAC
:1004590066660054686520B0D7B5C62069733A202E
:100469004F66660054686520BAECB5C62069733AD0
:10047900204F6666004C69686874732053686F770B
:1004890054696D652100414C4C20204C69686874A1
:070499007320206F6666006E
:1002EC00EE60030203D8EF14B4080040030203D8F5
:1002FC0090030A75F003A4C58325F0C5837302032C
:10030C002202033B02035402036A02038002039697
:10031C000203AC0203C2120775E4F508E508900469
:10032C001893FF70030203D812082D050880ED12F4
:10033C000775E4F508E50890042993FF70030203A0
:10034C00D812082D050880ED120775E4F508E508AC
:10035C0090043A93FF607512082D050880F012077F
:10036C0075E4F508E50890044B93FF605F12082DC7
:10037C00050880F0120775E4F508E50890045C9315
:10038C00FF604912082D050880F0120775E4F50886
:10039C00E50890046D93FF603312082D050880F07A
:1003AC00120775E4F508E50890047E93FF601D12B2
:1003BC00082D050880F0120775E4F508E50890048F
:0C03CC008F93FF600712082D050880F0D9
:0103D8002202
:040799007F057E005A
:0A079D00EF1FAC0670011E4C601245
:1007A700E4F508E508C394FA50EC000000000508DA
:0207B70080F1CF
:0107B900221D
:10000E00C2A0D2A1D2A200000000E580339200C2AD
:03001E00A2A2009B
:0100210022BC
:1007F70012000E40FBC2A0C2A1C2A200008F80005F
:0C080700000000D2A200000000C2A222EB
:10082D0012000E40FBD2A0C2A1C2A28F8000000018
:0A083D0000D2A200000000C2A222B7
:10072A00D2A37F341207F71207997F301207F71204
:10073A0007997F0C1207F71207997F011207F77FB3
:06074A00057E0002079D80
:1005AE007F0A7E0012079D12072AE4FDFF120779CB
:1005BE00E4FEEE9003D993FF600612082D0E80F232
:1005CE00E4FD7F01120779E4FEEE9003E693FF60EF
:1005DE000612082D0E80F2120775E4FEEE9003F659
:1005EE0093FF600612082D0E80F2E4FD7F031207C2
:1005FE0079E4FEEE90040793FF600612082D0E803C
:01060E00F2F9
:01060F0022C8
:10085A00AD071FED600BE4FEEEC3940D50F20E805F
:01086A00F796
:01086B00226A
:04077500E4FD7F021E
:10077900EF70047F808013BF01047F90800CBF025B
:10078900047F888005BF03027F98EF2DFF0207F7DA
:1004AC00020026E493A3F8E493A34003F68001F240
:1004BC0008DFF48029E493A3F85407240CC8C33351
:1004CC00C4540F4420C8834004F456800146F6DF20
:1004DC00E4800B0102040810204080900003E47EAD
:1004EC00019360BCA3FF543F30E509541FFEE49315
:1004FC00A360010ECF54C025E060A840B8E493A3DC
:10050C00FAE493A3F8E493A3C8C582C8CAC583CA06
:10051C00F0A3C8C582C8CAC583CADFE9DEE780BEBE
:0100090000F6
:1006B500BB010689828A83E0225002E722BBFE0243
:0906C500E32289828A83E4932276
:10052C008B088A09890AAB0BAA0CA90D1206B560B7
:10053C0063AB08AA09A90A1206B5605F850B0E8584
:10054C000C0F850D108B118A128913AB0EAA0FA9F3
:10055C00101206B5FF6023AB11AA12A9131206B52F
:10056C006F7017042510F510E4350FF50F74012585
:10057C0013F513E43512F51280D1AB0EAA0FA910A6
:10058C001206B57002800D7401250AF50AE43509CE
:10059C00F509809DAB08AA09A90A227B007A00798B
:0205AC0000222B
:1006CE00EF4E6012EF60010EEDBB010B89828A8343
:1006DE00F0A3DFFCDEFA2289F05007F709DFFCA950
:0C06EE00F022BBFEFCF309DFFCA9F022A7
:00000001FF
