:0300000002008C6F
:0C008C00787FE4F6D8FD75810902000EB3
:10007C003F065B4F666D7D077F6F777C395E7971CC
:10000E00758901758C51758A1BD2AFD2A9D28CD24B
:10001E00A77580EAC2A7D2A675803FC2A6E4F508EE
:10002E00E509B41420E4F5090508E508B41003E465
:10003E00F508D2A6E50890007C93F580C2A67FE86D
:10004E007E0312005E0508E508C3941040D280CDF1
:10005E00D3EF9400EE940040147D6E7C00ED1D7085
:0D006E00011CED4C70F7EF1F70E61E80E3E3
:01007B002262
:03000B0002009858
:09009800758C51758A1B050932B3
:00000001FF
