:03000000020452A5
:0C045200787FE4F6D8FD75816D020499F6
:1005DD000853080C040602030109084B0901030224
:0405ED0006040C08EC
:0906BF0029F8E6F5B07F057E0084
:1006C800E4FDFCC3ED9FEC9E5015E4FBFA0BBB0068
:0F06D800010AEB64704A70F50DBD00010C80E45F
:0106E70022F0
:10078800E4F56DE4F974531206BF09B908F7056D6D
:07079800E56DC3940840EC7D
:01079F002237
:1007A000E4F56DE4F9744B1206BF09B908F7056D5D
:0707B000E56DC3940840EC65
:0107B700221F
:0407F100E4F5B02259
:1005F1000E214D6F746F72206973204343572000A1
:100601000E2F4D6F746F72206973202043572000A5
:100611000E3D4D6F746F722069732053746F7000BB
:10032300756B00756C4012070C7590FF7F80120788
:10033300CCE4F567743D2567F8E6FF1207D47F0A1E
:100343007E001206A10567E567C3940D40E67F149E
:100353007E001206A17FC01207CC7F207E03120607
:10036300A11205677F207E031206A11204DE8E69A7
:100373008F6A7F207E031206A1E4F5681205677F6A
:10038300207E031206A11204DE8E698F6A7F207E0F
:10039300031206A1C3E56A94DCE5699400502E7F3D
:1003A300801207CC7F0A7E001206A1E4F567743D34
:1003B3002567F8E6FF1207D47F0A7E001206A1051F
:1003C30067E567C3940D40E61207DC8073C3E56AF3
:1003D30094DCE56994004035D3E56A94FAE56994C1
:1003E30000502A7F801207CCE4F567742F2567F845
:1003F300E6FF1207D47F0A7E001206A10567E567B0
:10040300C3940D40E61207E31207888033D3E56AED
:1004130094FAE569940040287F801207CCE4F567DD
:1004230074212567F8E6FF1207D47F0A7E001206BF
:10043300A10567E567C3940D40E61207EA1207A01A
:0F0443000568E568C39440500302037F02036419
:100621000A0854582D3143204D4355000E12575797
:0C063100572E54584D43552E434F4D009A
:10068E00C2A4C2A68F807F0A7E001206A1D2A47FCA
:03069E00147E00C7
:1006A100D3EF9400EE940040147D0A7C00ED1D70A0
:0D06B100011CED4C70F7EF1F70E61E80E39A
:0106BE002219
:10074D00D3EF9400EE940040147D647C00ED1D7099
:0D075D00011CED4C70F7EF1F70E61E80E3ED
:01076A00226C
:0807CC00C2A512068EC2A42290
:0807D400D2A512068EC2A42278
:10070C00C2A47F381207CC7F0A7E001206A17F0C90
:10071C001207CC7F061207CC7F011207CC7F800218
:02072C0007CCF8
:08063D00066174656D703A005E
:10072E00C2A77F677E00EF1F70011EEF4E70F7D2DB
:0E073E00A77E007F04EF1F70011EEF4E70F7C4
:01074C00228A
:1006E800C2A70FBF0000D2A70FBF00000FBF0000B6
:1006F800A2A792007E007F08EF1F70011EEF4E70C8
:03070800F7A20055
:01070B0022CB
:10076B00E4FD7C011206E8E433FFC43333335480D9
:0C077B00FEEDC3134EFD0CBC09EAAF05F7
:01078700224F
:100646007E01EF139200EFC313FF30001BC2A70B0E
:10065600BB00000BBB0000D2A77A007B08EB1B7027
:10066600011AEB4A70F7801BC2A77A007B08EB1BC6
:1006760070011AEB4A70F7D2A70BBB00010A0BBB3D
:0706860000010A0EBE09BBD2
:01068D00224A
:1007B80012072E7F017E001206A17FCC1206467F0B
:0407C800440206469B
:1004DE0012072E7F017E001206A17FCC1206467FE8
:1004EE00BE12064612076BAB0712076B755F008FC5
:1004FE0060E560756000F55FAF03EF4260E4AC5FEE
:10050E00AD60120206E4FBFA7980783D1200FB8F93
:10051E005E8E5D8D5C8C5BE4FFFE7D207C41AB5E70
:10052E00AA5DA95CA85B1200FBE4FBFAF9783F1206
:10053E00000A12023F8E5F8F60AF5EAE5DAD5CACA7
:10054E005B7BCD7ACC794C783D12000A8F5E8E5D46
:08055E008D5C8C5BAE5FAF60A9
:010566002272
:100567001207B81204DEAB07AA067C037DE8120265
:10057700C07E007F64CFCDCFCECCCE1202C0EF2499
:1005870030F5667C007D64AF03AE021202C07E00C8
:100597007F0ACFCDCFCECCCE1202C0EF2430F56785
:1005A70075682EAE02AF037C007D0A1202C0ED24EF
:1005B70030F5697FC01207CCE4F56D7461256DF8DD
:1005C700E6FF1207D47F0A7E001206A1056DE56DCE
:0505D700C3940940E699
:0105DC0022FC
:0707DC00C290D291D29222DB
:0707E300D290C291D29222D4
:0707EA00D290D291C29222CD
:100003000202ABE86480F8E933E83360110460F07E
:10001300ED33EC337009E8FCE9FDEAFEEBFF220463
:1000230060DED3EB9FEA9EE99DE8C2E78CF0C2F75E
:1000330095F0400CE8CCF8E9CDF9EACEFAEBCFFB2A
:1000430012027685D0F05804700320D5B3E804700B
:10005300075002B2D50202B592D5EC0460F7E4CCA6
:10006300C0E0C398F8603B94186008400DD0E0FBF3
:1000730002028DE4FBFAC9FC8028E830E406E4C9F7
:10008300FBE4CAFCE830E305E4C9CACBFCE8540747
:100093006010F8C3E913F9EA13FAEB13FBEC13FC52
:1000A300D8F130F52FC3E49CFCEF9BFFEE9AFEEDF5
:1000B30099FDD0E0FBEF4E4D4C701222DB030202A0
:1000C300B2EC2CFCEF33FFEE33FEED33FDED30E706
:1000D300EB02028DEF2BFFEE3AFEED39FDD0E0FB94
:1000E30050130BBB00030202B5ED13FDEE13FEEF3D
:0800F30013FFEC13FC02028D67
:1000FB00EC4D6011E8497017ED33EC3304600DE4FF
:10010B00FCFFFEFD22E933E8330470F80202AB1268
:10011B00027658046009E4CC248150062850090269
:10012B0002B52840030202B2C0E0EB4A7044B9802A
:10013B0006D0E0FB0202A1EF4E701CBD8008EBFF66
:10014B00EAFEE9FD80EBE98DF0A4FEE5F00201E4A7
:10015B00E9CDF9EAFEEBFFEF89F0A4FCE5F0CE89DF
:10016B00F0A42EFFE435F0CD89F0A42DFEE435F09C
:10017B008067EF4E7005BD80D780C3EF8BF0A4ACCA
:10018B00F0EE8BF0A42CFCE435F0F8EF8AF0A42C05
:10019B00E5F038FCE433CB8DF0A42CFCE5F03BF818
:1001AB00EE8AF0A42CFCE5F038F8E433CF89F0A408
:1001BB002CFCE5F038CF3400CE89F0A42FFFE5F00E
:1001CB003EFEE433C98DF0A42EFEE5F039CD8AF066
:1001DB00A42FFFE5F03EFEE43DFD33D0E0FB5007DE
:1001EB000BBB000F0202B5EC2CFCEF33FFEE33FE22
:0601FB00ED33FD02028D50
:1002010075F020800E75F010800575F0087D007E78
:10021100007F003392D530D503120315EC33401023
:10022100EF33FFEE33FEED33FDEC33FCD5F0ED2281
:0E023100E5F0247EA2D513CC92E7CDCEFF22BD
:10023F00EDD2E7CD33EC3392D524814006E4FFFEB7
:10024F00FDFC22FCE4CFCECDCC24E0501174FF8016
:10025F00EDC3CC13CCCD13CDCE13CECF13CF0470B3
:07026F00F030D5DE0203159B
:10027600E9D2E7C933E833F892D5EDD2E7CD33ECCE
:0702860033FC5002B2D52247
:10028D00EC30E7100FBF000C0EBE00080DBD0004D2
:10029D000BEB6014A2D5EB13FCED92E7FD2274FF7E
:1002AD00FCFDFEFF22E480F8A2D574FF13FC7D80D7
:0302BD00E480EFEB
:10045E00020323E493A3F8E493A34003F68001F28E
:10046E0008DFF48029E493A3F85407240CC8C3339F
:10047E00C4540F4420C8834004F456800146F6DF6E
:10048E00E4800B01020408102040809005DDE47E1C
:10049E00019360BCA3FF543F30E509541FFEE49363
:1004AE00A360010ECF54C025E060A840B8E493A32A
:1004BE00FAE493A3F8E493A3C8C582C8CAC583CA55
:1004CE00F0A3C8C582C8CAC583CADFE9DEE780BE0D
:0106450000B4
:1002C000BC000BBE0029EF8DF084FFADF022E4CC22
:1002D000F875F008EF2FFFEE33FEEC33FCEE9DECEB
:1002E000984005FCEE9DFE0FD5F0E9E4CEFD22ED31
:1002F000F8F5F0EE8420D21CFEADF075F008EF2F7B
:10030000FFED33FD4007985006D5F0F222C398FD6B
:050310000FD5F0EA2208
:0E031500C3E49FFFE49EFEE49DFDE49CFC22F9
:00000001FF
