:0300000002026F8A
:0C026F00787FE4F6D8FD7581310202B6FC
:1001920057656C636F6D65204C756F436F6E672199
:1001A20020202000496E7075742070617373776F20
:1001B20072642100202020202020202020202020C6
:1001C200202020200020202000496E707574206EAF
:1001D200756D626572733A202000496E70757420E5
:1001E2006E756D626572733A004E657720636F6457
:1001F2006520736574204F4B21004E6F74203820A8
:1002020063686172616374657273005269676874CE
:1002120021204F70656E213E3E3E3E0057726F6E4A
:100222006721205265747279210057726F6E6720C0
:10023200332074696D65732100D4D4BED49FA9D4D0
:10024200D4BED48E9FD4D46A7E81A9BE77777E9F96
:100252008E9F0009030C0C0C1809030C0C0C1809D6
:0D026200030C0C0C0C0C09030C0C0C180008
:10055100C100011000011100081201020304050687
:02056100070889
:10052500EF1FAA0670011E4A600BE4FDEDC3947827
:0505350050EE0D80F7FF
:01053A00229E
:0A058200C2947FF4120543D29422C4
:0F056400C29012053BD2927F14120543C292221D
:0F057300D29012053BD2927F14120543C29222FE
:10049D007F381205647F641205437F381205647F2F
:1004AD00641205437F381205647F641205437F385B
:1004BD001205647F081205647F011205647F061220
:0704CD0005647F0C020564C9
:0A058C007F011205647F050205439C
:10050B008F308B31ED7006E53024808004E530248C
:0A051B00C0FF120564AF3102057342
:0A04D4007A0179B67BFF7D01E4FF99
:1004DE008F2B8D2C8B2D8A2E892FAB2DAA2EA92FEB
:1004EE0012045EFB6016AD2CAF2B12050B740125AA
:0D04FE002FF52FE4352EF52E052B80DE2284
:10041E0075A00FE5A0540FF524D2A8640F602E7FAF
:10042E0064120543E5A0540F640F6021120582C2C9
:10043E0093E5A0540FF52444F0F5A0E5A054F0FF89
:0F044E00E5A054F0FEBEF0F8E5242FFF227FFF5B
:01045D00227C
:1003C80012041EEF12047703F77703FA7B03FD7D0F
:1003D8000400B70403BB0406BD0409D7040CDB04FE
:1003E8000FDD0412E70415EB0418ED0000041B7F71
:1003F80001227F02227F03227F04227F05227F06BB
:10040800227F07227F08227F09227F0A227F0B2270
:060418007F0C227FFF2291
:07059600D288D2A8D2AF22E7
:10000600E4F521D29375230812059612049D7F0A02
:1000160012054312058C7BFF7A017992E4FDFF12EB
:1000260004DE7A0179A61204D81203C88F10E510EF
:10003600F460F6E521700C7BFF7A0179B67D01FF4D
:100046001204DEE521D39408504D74082521F8A644
:1000560010E5102430FB7D01AF2112050BE510B42D
:100066000B1D1521AF217BFF7A0179C77D01120493
:10007600DE15217BFF7A0179CBE4FDFF1204DE0554
:1000860021E521D3940840037521087BFF7A017985
:10009600DCE4FDFF1204DEE510640C70527BFF7A8F
:1000A6000179DCFDFF1204DEE52164087032FF747D
:1000B600082FF8E6FE74122FF8A6060FBF08F012F6
:1000C60004D47BFF7A0179EB1204DAE4F522740892
:1000D6002522F8E4F60522E522B408F2C201800CD6
:1000E6001204D47BFF7A0179FC1204DAE4F521E5E7
:1000F60010640A600302002FAF21F521EF6523701B
:1001060023D201FFEFC39523501A30011174122F29
:10011600F8E6FE74082FF8E6B50603D38001C3920D
:10012600010F80E030012D1204D47BFF7A02790D95
:100136001204DA1202FBC293E4F511C201F522E5BC
:1001460022C39408400302002F74082522F8E4F61F
:10015600052280EB1204D47BFF7A02791E1204DAA0
:100166000511E5116403600302002FD200D2A87BBB
:10017600FF7A0179B67D01FF1204DE7BFF7A0279F0
:0C0186002C1204DA20000302002F80F885
:08053B00C292C2918F807F0A79
:0D054300EFD3940040077E13DEFE1F80F30F
:010550002288
:030003000203678E
:10036700C0E0C0F0C083C082C0D075D000C000C05C
:0D03770001C002C003C004C005C006C007DD
:10038400D293C200C201E4FFEF04FE74122FF8A658
:100394000674082FF876000FBF08ED7BFF7A017909
:0903A400A61204DA751100C2A8CA
:1003AD00D007D006D005D004D003D002D001D000A4
:0B03BD00D0D0D082D083D0F0D0E0324E
:1002FB00E4F524F525AF25EF90023B93FEEF90023A
:10030B0055936E60047F0180027F00EF604DE4FD2A
:10031B00FCE5259002559375F014A4FFC3ED9FECFB
:10032B0095F05026B294E4FFFEE52590023B9375C1
:10033B00F00384FBC3EF9BEE940050070FBF00014B
:10034B000E80E60DBD00010C80C77F147E001205E8
:0B035B00250525E525709E0524809AED
:010366002274
:10027B00020006E493A3F8E493A34003F68001F293
:10028B0008DFF48029E493A3F85407240CC8C33384
:10029B00C4540F4420C8834004F456800146F6DF53
:1002AB00E4800B0102040810204080900551E47E8D
:1002BB00019360BCA3FF543F30E509541FFEE49348
:1002CB00A360010ECF54C025E060A840B8E493A30F
:1002DB00FAE493A3F8E493A3C8C582C8CAC583CA3A
:1002EB00F0A3C8C582C8CAC583CADFE9DEE780BEF2
:010563000097
:10045E00BB010689828A83E0225002E722BBFE029C
:09046E00E32289828A83E49322CF
:10047700D083D082F8E4937012740193700DA3A314
:1004870093F8740193F5828883E473740293686028
:06049700EFA3A3A380DF28
:00000001FF
