:030000000206D71E
:0C06D700787FE4F6D8FD75816202071EF2
:100763000B16303132333435363738390011212006
:1007730020202030303A30303A3030202020200002
:10078300113230303030C4EA3030D4C23030C8D5C2
:100793002020001144BFAAB7A2C9E8BCC6A3BAC2AD
:1007A300DEB4CFA3A100015900015700015E00018F
:1007B3000B00011000011500014312010E0A010F85
:1007C3000A011300015600011400010C00010D0081
:1007D300015500021107E5025C0000025A00000106
:0207E30008000C
:10094200C2918F807F057E00120953D2927F0A7E68
:0109520000A4
:10095300EF1FAA0670011E4A600BE4FDEDC394135A
:0509630050EE0D80F7CD
:01096800226C
:0C096900C2937FC87E00120953D2932273
:08097500C290120942C2922255
:1008F2001209757F201209127F201209127F1E7EB3
:10090200001209537F871209757F201209127F2076
:08091200D290120942C29222A8
:1008BA007F907E011209537F301209757F647E0092
:1008CA001209537F301209757F257E001209537F62
:1008DA000C12097512094F7F011209757F647E0097
:0808EA001209537F0602097593
:0E058500E50EFD7C00E543FB7A00AF12AE11DF
:080593008C618D628F828E8362
:10059B00C3E5629403E561648094805013740C2569
:1005AB0062F562E43561F561E582158270021583AF
:1005BB00E5622401FFE43561FE7C007D031204D269
:1005CB007D05120539AC06AD07E56225E0FFE56157
:1005DB0033FEEF2BFFEE3ACF2DCF3CCF2582FDEF35
:1005EB003583FCE582AE837802CEA2E713CE13D817
:1005FB00F82DFBEC3EFA7C007D64AF82AE831205D6
:10060B0039C3EB9FFBEA9EFAAE83AF827C017D90F0
:10061B00120539EF2BFFEE3AFE7C007D07120539F0
:04062B00AE04AF0565
:01062F0022A8
:03002B000202C806
:1002C800C0E0C0F0C083C082C0D075D000C000C0FC
:0D02D80001C002C003C004C005C006C0077D
:1002E500C2CF0508E508641060030203E9F50805B7
:1002F5005EE55ED3943B50030203D2755E00055D57
:10030500E55D7002055CD3943BE55C6480948050A8
:10031500030203CF755C00755D00055BE55B70024C
:10032500055A050BD39417E55A648094805003024F
:1003350003CF755A00755B000543E50E6401602324
:10034500E50E6403601DE50E64056017E50E6407A0
:100355006011E50E6408600BE50E640A6005E50EA4
:10036500B40C09E543C3942040608059E50E64044C
:100375006011E50E6406600BE50E64096005E50E87
:10038500B40B09E543C3941F40408039E50E640270
:100395007038E5125403700EAE11AF12FC7D641275
:1003A50004E4ED4C700FAE11AF127C017D90120488
:1003B500E4ED4C7009E543C3941E400E8007E54308
:1003C500C3941D4005754301050E120630E50EC3A5
:1003D500940D400B0512E51270020511750E011200
:0403E50005858F0FEC
:1003E900D007D006D005D004D003D002D001D00068
:0B03F900D0D0D082D083D0F0D0E03212
:10091A00AE07ED24FE600F146011146013240370F7
:10092A0016EE4480800DEE44908008EE44888003E1
:08093A00EE4498FF120975223A
:10063000AE11AF127C037DE81204E474162FF8E6C5
:10064000F532AE11AF127C007D641204E47C007DB3
:100650000A1204E474162DF8E6F533AE11AF127CDD
:10066000007D0A1204E47C007D0A1204E474162D55
:10067000F8E6F534AE11AF127C007D0A1204E47482
:10068000162DF8E6F535E50E75F00A842416F8E621
:10069000F538E50E75F00A84741625F0F8E6F5399C
:1006A000E54375F00A842416F8E6F53CE54375F059
:1006B0000A84741625F0F8E6F53D75402075412052
:1006C0007D01E4FF12091AE4FC74322CF8E6FF12F3
:0606D00009120CBC10F33E
:0106D6002201
:1007E600AE5AAF5B7C007D0A12053974162FF8E607
:1007F600F525AE5AAF5B7C007D0A12053974162DBD
:10080600F8E6F526AE5CAF5D7C007D0A120539740C
:10081600162FF8E6F528AE5CAF5D7C007D0A120562
:100826003974162DF8E6F529E55E75F00A84241666
:10083600F8E6F52BE55E75F00A84741625F0F8E601
:10084600F52C7D02E4FF12091AE4FC74212CF8E66B
:08085600FF1209120CBC0CF3A7
:01085E002277
:100404007F881209087F891209087F8A1209087FE8
:100414008B1209757FD01209127FC71209127F8CC3
:100424001209757FC61209127FDA120912E50F0448
:1004340014B4070040030204C390044B75F003A4F2
:10044400C58325F0C5837302046002046E02047C34
:1004540002048A0204980204A60204B47F8D1209DD
:10046400757FD21209127FBB80527F8D1209757F6E
:10047400B61209127FFE80447F8D1209757FC8125F
:1004840009127FFD80367F8D1209757FCB12091208
:100494007FC480287F8D1209757FCE1209127FE5F3
:1004A400801A7F8D1209757FC11209127FF9800CA1
:1004B4007F8D1209757FC81209127FD51209127F28
:0E04C4008E1209757F201209127F2002091284
:100006007F98120975E4FC74442CF8E6FF12091275
:040016000CBC12F319
:01001A0022C3
:07097D00D288D2A8D2AF22FC
:0300030002085F91
:10085F00C0E0C0F0C0D075D000C000C002C003C05F
:07086F0004C005C006C0072C
:10087600E4FB20B2231209690557E557B4010AC201
:10088600CA855958120630800FE557D3940540089B
:0F089600855859D2CA7557000BBB50D630B2FDEA
:1008A500D007D006D005D004D003D002D000D0D0D8
:0508B500D0F0D0E0329C
:060189002430FF120912F0
:10018F003096030202327F647E00120953309603C9
:10019F0002022F120969E55724FE603314603E14E2
:1001AF00604C146063240470770512E51270020529
:1001BF0011AE5AAF5BEE3395E0FDFCE47BFF7AFFA7
:1001CF00F9F8C312056F5021E4F511F512801A05E5
:1001DF000EE50ED3940C4003750E01800C0543E51C
:1001EF0043D3941F40037543011206308032055BE1
:1001FF00E55B7002055AD39417E55A6480948040EA
:10020F001FE4F55AF55B8018055DE55D7002055C2E
:10021F00D3943BE55C648094804005E4F55CF55D28
:10022F003096FD3097030202C27F647E001209539D
:10023F00120969E55724FE602814603314604114D5
:10024F0060572404706AE512151270021511C3E588
:10025F00129401E51194005022751100751201805E
:10026F001A150EE50EC394015003750E0C800C1574
:10027F0043E543C39401500375431F12063080308A
:10028F00E55B155B7002155AC3E55A648094805084
:10029F001F755A00755B178017E55D155D700215A8
:1002AF005CC3E55C648094805006755C00755D3BB3
:0902BF003097FD1205858F0F2216
:0D001B0075CA0B75CADCD2ADD2AFD2CA22B5
:10002E001208BA12001B12097D12063012040412B5
:10003E00000612018F1207E61200068556141204EE
:10004E0004E55724FE607C1470030200EB14700369
:10005E0002010B147003020145240470D57F801237
:10006E0009087F811208F27F80120975AE11AF1256
:10007E007C037DE81204E4EF2430FF120912AE1166
:10008E00AF127C007D641204E47C007D0A1204E44D
:10009E00ED2430FF1209127F81120975AE11AF12D5
:1000AE007C007D0A1204E47C007D0A1204E4ED2437
:1000BE0030FF120912AE11AF127C007D0A1204E459
:1000CE0002013E7F831208F27F83120975E50E75D9
:1000DE00F00A842430FF120912E50E80187F851273
:1000EE0008F27F85120975E54375F00A842430FF06
:1000FE00120912E54375F00A84E5F080347F9212FE
:10010E0009087F1E7E001209537F971209087F92FD
:10011E00120975AE5AAF5B7C007D0A120539EF24C9
:10012E0030FF120912AE5AAF5B7C007D0A12053900
:10013E00ED1201890200407F931209087F201209F7
:10014E00127F1E7E001209537F971209087F9312A9
:10015E0009757F3A120912AE5CAF5D7C007D0A1202
:10016E000539EF2430FF120912AE5CAF5D7C007DC5
:0B017E000A120539ED12018902004051
:1006E30002002EE493A3F8E493A34003F68001F2FF
:1006F30008DFF48029E493A3F85407240CC8C33318
:10070300C4540F4420C8834004F456800146F6DFE6
:10071300E4800B0102040810204080900763E47E0C
:10072300019360BCA3FF543F30E509541FFEE493DB
:10073300A360010ECF54C025E060A840B8E493A3A2
:10074300FAE493A3F8E493A3C8C582C8CAC583CACD
:10075300F0A3C8C582C8CAC583CADFE9DEE780BE85
:0107E5000013
:1004D200EF8DF0A4A8F0CF8CF0A428CE8DF0A42E3E
:0204E200FE22F8
:1004E400BC000BBE0029EF8DF084FFADF022E4CCFC
:1004F400F875F008EF2FFFEE33FEEC33FCEE9DECC5
:10050400984005FCEE9DFE0FD5F0E9E4CEFD22ED0A
:10051400F8F5F0EE8420D21CFEADF075F008EF2F54
:10052400FFED33FD4007985006D5F0F222C398FD45
:050534000FD5F0EA22E2
:10053900C2D5EC30E709B2D5E4C39DFDE49CFCEEDD
:1005490030E715B2D5E4C39FFFE49EFE1204E4C36D
:10055900E49DFDE49CFC80031204E430D507C3E468
:060569009FFFE49EFE224C
:10056F00EB9FF5F0EA9E42F0E99D42F0EC6480C803
:06057F0064809845F022A3
:00000001FF
