:030000000200DC1F
:0C00DC00787FE4F6D8FD75811C0201233A
:100337003F065B4F666D7D077F6FFEFDFBF7EFDFC7
:1002BE0002130000021900000217000002150000D0
:1002CE00020A000002080000021B000002100000DB
:0C02DE00010E0F010D00010C00010F01CA
:0602EB00E493F5807F0A98
:0D02F100EFD3940040077E7DDEFE1F80F3FA
:0102FE0022DD
:10032700758901758C3C758AB0D2AFD2A9D28C225F
:10000E00E50F60030200D8AE15AF16FC7D0A120193
:10001E00D074372FF58274033EF583E493F59090F8
:10002E0003461202EBAE15AF167C007D0A1201D00C
:10003E0074372DF58274033CF583E4932480F59098
:10004E009003451202EBAE17AF187C007D0A120129
:10005E00D074372FF58274033EF583E493F59090B8
:10006E0003441202EBAE17AF187C007D0A1201D0CA
:10007E0074372DF58274033CF583E4932480F59058
:10008E009003431202EBAE19AF1A7C007D0A1201E7
:10009E00D074372FF58274033EF583E493F5909078
:1000AE0003421202EBAE19AF1A7C007D0A1201D088
:1000BE0074372DF58274033CF583E493F590900329
:0E00CE0041E493F5807F0A0202F17580FF2263
:10029100C2A3C2A1D2A3E4FEC2A1EF1392A2D2A132
:1002A100EFC313FF0EBE08F0E4FEC2A1ED1392A24C
:0C02B100D2A1EDC313FD0EBE08F0C2A3E5
:0102BD00221E
:10026000C2A3C2A1D2A3E4FDC2A1EF1392A2D2A164
:10027000EFC313FF0DBD08F0E4FDC2A1EEC313FEF2
:1002800030A203430680D2A10DBD08EEC2A3AF0683
:01029000224B
:1002FF00EF75F00A84FEEF75F00A84AFF0EEC45488
:03030F00F02FFFCD
:0103120022C8
:0303130012026073
:10031600EFC4540FFEEF540FFFEE75F00AA42FFF43
:0103260022B4
:100225001203277580FFE4F50F7F811203137519FB
:10023500008F1A7F831203137517008F187F85129D
:1002450002601203167515008F167F0A1202F17DE2
:0B025500807F8E12029112000E80FBD1
:03000B0002016887
:10016800C0E0C0D0758C40758AFB0514E514700298
:10017800051364144513704BF513F514051AE51AA5
:1001880070020519B2A0D3943BE519940040347568
:100198001900751A000518E51870020517D3943B65
:1001A800E5179400401D7517007518000516E5162B
:1001B80070020515D39417E51594004006751500CF
:0801C800751600D0D0D0E03222
:1000E800020225E493A3F8E493A34003F68001F207
:1000F80008DFF48029E493A3F85407240CC8C33319
:10010800C4540F4420C8834004F456800146F6DFE7
:10011800E4800B01020408102040809002BEE47EB7
:10012800019360BCA3FF543F30E509541FFEE493DC
:10013800A360010ECF54C025E060A840B8E493A3A3
:10014800FAE493A3F8E493A3C8C582C8CAC583CACE
:10015800F0A3C8C582C8CAC583CADFE9DEE780BE86
:0102EA000013
:1001D000BC000BBE0029EF8DF084FFADF022E4CC13
:1001E000F875F008EF2FFFEE33FEEC33FCEE9DECDC
:1001F000984005FCEE9DFE0FD5F0E9E4CEFD22ED22
:10020000F8F5F0EE8420D21CFEADF075F008EF2F6B
:10021000FFED33FD4007985006D5F0F222C398FD5C
:050220000FD5F0EA22F9
:00000001FF
