:0300000002019268
:0C019200787FE4F6D8FD7581200201D9C9
:1003A1002020323032312D382D32352057454E0044
:0203E900C10051
:0503E3001203E8D2A1A5
:0103E80022F2
:0A03BD00D2A11203E8D2A10203E866
:0A03C700D2A01203E3C2A00203E873
:0A03D100C2A01203E3D2A00203E869
:0B03330012035612033EAF05120356E2
:10033E00E4FFD2A11203E830A009EFC394FA5003F0
:08034E000F80F4C2A10203E8D4
:10035600E4FEEF25E0FFC2A11203E892A01203E338
:0E0366000EBE08EEC2A11203E8D2A00203E808
:1002E900C2A11203E8D2A01203E8E4FED2A11203CC
:1002F900E8EF25E0FDA2A0E4334DFFC2A11203E817
:040309000EBE08E834
:01030D0022CD
:10030E00AD087F0A1202C77FCA120399AD087F019A
:10031E00AC071203C77FA012035612033EAF04129E
:05032E0003330203D1BE
:02037400AD07D3
:100376001203C77FA01203331203C77FA1120356CD
:0903860012033E1202E91203D138
:01038F00224B
:0F0296008F807F057E001202A5D2B47F057E0007
:1002A500D3EF9400EE940040147D6E7C00ED1D703C
:0D02B500011CED4C70F7EF1F70E61E80E39A
:0102C2002219
:09039000AD0B7F041202C77FC40B
:08039900C2B5120296C2B422A3
:08000300D2B5120296C2B4222C
:0402C300AD0A7F07FA
:1002C700ED75F00A84FBED75F00A84AAF0EF24C0FF
:1002D700FF120399EB2430FF120003EA2430FF02D8
:0202E700000312
:10010500C2A6C2A7C2B4C2B7E4F50BF50AF5081238
:1001150003BD7F381203997F061203997F0C1203E2
:10012500997F011203997F80120399E4FBEB9003F9
:10013500A193FF1200031202A10BBB0FF07FC612A1
:1001450003997F3A1200031202A17FC91203997F16
:100155003A1200031202A17F011203748F087F0275
:100165001203748F0A7F031203748F0BAD087F0A85
:100175001202C71202C3AD0B7F041202C7758901B3
:0C018500758C3C758AB0D2AFD2A9D28C28
:01019100224B
:0C03B100C2A37F647E001202A5D2A3222A
:10000E001202A120B03C050C30B0FD1203B1E50C7C
:10001E00B4010CC28C7FCA1203997F0F120399E5AB
:10002E000CB402057FC7120399E50CB403057FC417
:10003E00120399E50CB4040AE4F50C7F0C12039933
:10004E00D28CE50C700302010420B1551202A120DE
:10005E00B14F30B1FD1203B1E50CB4010D0508E549
:10006E0008B43C03E4F50812030EE50CB4021905BE
:10007E000AE50AB43C03E4F50A1202C37FC7120371
:10008E0099AD0A7F0212031EE50CB40314050BE5AD
:10009E000BB41803E4F50B120390AD0B7F031203A0
:1000AE001E20B2521202A130B2FD1203B1E50CB401
:1000BE00010D1508E508B4FF0375083B12030EE5A4
:1000CE000CB40219150AE50AB4FF03750A3B1202B5
:1000DE00C37FC7120399AD0A7F0212031EE50CB44B
:1000EE000314150BE50BB4FF03750B17120390AD3C
:0700FE000B7F0312031E2219
:0803DB0012010512000E80FB67
:03000B0002021ED0
:10021E00C0E0C0F0C0D075D000C002C003C004C0A2
:10022E0005C006C007758C3C758AB00509E50964E2
:10023E00127042F5090508E508643C702EF50805B4
:10024E000AE50AB43C1B750A00050BE50BB418034E
:10025E00750B00AD0B7F041202C7AD0B7F031203AB
:10026E001E1202C3AD0A7F0212031EAD087F0A12D0
:10027E0002C712031AD007D006D005D004D003D07F
:08028E0002D0D0D0F0D0E03224
:10019E000203DBE493A3F8E493A34003F68001F299
:1001AE0008DFF48029E493A3F85407240CC8C33362
:1001BE00C4540F4420C8834004F456800146F6DF31
:1001CE00E4800B01020408102040809003E9E47ED5
:1001DE00019360BCA3FF543F30E509541FFEE49326
:1001EE00A360010ECF54C025E060A840B8E493A3ED
:1001FE00FAE493A3F8E493A3C8C582C8CAC583CA18
:10020E00F0A3C8C582C8CAC583CADFE9DEE780BECF
:0103EB000011
:00000001FF
